:02000000A4C199
:100012000895089508950CE009B90895549A539AE1
:100022000EE30CB908950FEF0ABB07BB0895002732
:100032000ABB07BB08950FEF04BB0895A99A089560
:10004200A9980895A89A0895A8980895AA9A089533
:10005200AA980895AB9A0895AB980895AF9A089517
:10006200AF980895EBDFEEDFDEDFEBBBF8BBE8DF36
:10007200CBBBD8BBE9DF089502E0C00F00E0D01F80
:10008200E01FF01F0895EEDFD2DFE6DFA9B3B6B3BB
:10009200E1DF0895E7DFABBBB8BBDADF00000000A9
:1000A200D5DF0895CC27DD27EE27FF270895CAEA7A
:1000B200DAEA0895C4E5D5E50895A5E5B5E508951C
:1000C200AAEABAEA0895AFEFBFEF0895A0EAB0EA4C
:1000D2000895A0E8B0E80895A0E1B0E10895A0E392
:1000E200B0E30895AF93BF93CF93DF93EF93FF9362
:1000F200DEDFE6DFCFDFDEDFE0DFCCDFD8DFE6DF2B
:10010200C9DFFF91EF91DF91CF91BF91AF91C2DF34
:1001120001D008952A2F3B2FB6DFA227B327AB2B9E
:10012200D9F7A22FB32F0895CF93DF93EF93FF93C5
:10013200BEDFC6DFAFDFBEDFC0DFACDFB8DFC9DFE7
:10014200A9DFB5DFBDDFA6DFB5DFB7DFA3DFFF9134
:10015200EF91DF91CF91C3DF9DDFB5DFDBDF089544
:10016200CF93DF93EF93FF93A2DFAADF93DFA2DFA8
:10017200A4DF90DF9CDFADDF8DDF99DFA1DF8ADFB7
:1001820099DF9BDF87DF93DFA7DF84DF9CDFC2DF9E
:10019200FF91EF91DF91CF9108955F9BFECF2CB13C
:1001A2000895FBDF2032E8F308955D9BFECF2CB962
:1001B200089507D01FD01ED01DD01CD01BD01AD03E
:1001C2000895CC27DD27EE27FF27089505D01ED0FE
:1001D2001DD01CD01BD00895AA27BB2708952F77C6
:1001E200213608F02052293319F010F027530895D0
:1001F20020530895D6DFD9DFF2DF04E0CC0FDD1FF4
:10020200EE1FFF1F0A95D1F7C22B0895CADFCDDF7B
:10021200E6DF04E0AA0FBB1F0A95E1F7A22B0895BF
:100222002B2F0BD0252FC1DF242FBFDF2A2F05D084
:10023200252FBBDF242FB9DF0895322F06D0422F9E
:10024200232F229502D0522F08952F702A3010F0BA
:10025200295C0895205D089518D09FDFA6DFA22FA4
:100262009CDFB22F3FDF2B2FA0DF06DF11D0A8F7D4
:1002720008950BD008DF2A2F98DF8FDF2B2F95DF11
:100282008CDFFADE05D0B0F708956FEF7FEF0895A7
:10029200625070400895CC27DD27F7DF0CD0F3DEE3
:1002A20007D0EADEF5DFD8F7A82FB92FB9DF089516
:1002B2008A0F9B1F089588279927089572DF75DF9B
:1002C200203551F2283739F3223599F22237F1F0ED
:1002D2002737C9F02B3201F12136D9F02936F9F04E
:1002E200203771F0253621F1243729F1233629F1FF
:1002F200233429F12E3629F108952EE356DF08958D
:1003020065DFF0DE089562DFC5DE0895BCDE88DFBA
:1003120008954FDFA7DE0895AFDEA4DEF7CFA0DE9B
:1003220000008EDE91DE92DE95DE000097DE0895FB
:1003320034DF3BDFFDCF96DEFECFF6DE089510DF21
:100342000895A2DE6DDF08950FE50DBF01E00EBF37
:1003520062DE64DE70DEE3DFB1DFCFDFFDCF089562
:00000001FF
